:1000000012C1000041C100003FC100003DC100001D
:100010003BC1000039C1000037C1000035C10000FC
:1000200033C1000031C100002FC100002DC100000C
:100030002BC1000029C1000027C1000025C100001C
:1000400023C1000021C100001FC100001DC100002C
:100050001BC1000019C1000017C100000C94C30AA5
:1000600013C100000C948D0A0C94630A0DC10000AA
:100070000BC1000009C1000007C1000005C100005C
:1000800003C1000001C10000FFC00000FDC000006E
:10009000FBC00000F9C00000F7C00000F5C0000080
:1000A000F3C00000F1C00000EFC00000EDC0000090
:1000B000EBC00000E9C00000E7C00000E5C00000A0
:1000C000E3C00000E1C00000DFC00000DDC00000B0
:1000D000DBC00000D9C00000D7C00000D5C00000C0
:1000E000D3C0000005A84CCDB2D44EB93836A90211
:1000F0000C50B9918688083CA6AAAA2ABE00000026
:10010000803F00002100240027002A002D0030003D
:10011000330001010000040107010A010000220070
:10012000250028002B002E003100340002010000C1
:10013000050108010B010000200023002600290012
:100140002C002F003200000100000301060109010C
:1001500005050505070508080808020202020A0A43
:100160000808040404040101010101010101030361
:10017000030303030303040707070C0C0C0C0C0C0C
:100180000C0C0202020206060606060606060B0B09
:100190000B0B0B0B0B0B010210202008081020404A
:1001A000102040800201020108040201010204083B
:1001B00010204080804020100804020180040201C9
:1001C0008040201008040201080402010102040812
:1001D00010204080010204081020408000000A0B1B
:1001E00002090C0D0E0807030401000000000000C6
:1001F00000000000000000000000000000000000FF
:1002000000000000000000001211100000000000BB
:1002100000000000000000000000000000000000DE
:1002200000009F0CEF1011241FBECFEFD1E2DEBF04
:10023000CDBF00E00CBF2BE1ACEDB6E001C01D92DC
:10024000A538B207E1F716E0A0E0B2E0E0E9FAE293
:1002500000E00BBF02C007900D92AC3DB107D9F78B
:1002600011E0C2E1D1E000E006C021970109802F32
:10027000FE010E940314C131D10780E00807A9F7ED
:100280000E94720D0C943715BBCEE1EFF6E0A08909
:10029000B18982E08C93A485B5851C92A685B7852B
:1002A0008FEC8C93108EA489B58986E08C93A289FB
:1002B000B3898C9180618C93A289B3898C91886079
:1002C0008C93A289B3898C9180688C930288F3897E
:1002D000E02D80818F7D80830895AF92BF92CF9271
:1002E000DF92EF92FF920F931F93CF93DF936C01F6
:1002F0007B018B01040F151FEB015E01AE18BF08D7
:10030000C017D10759F06991D601ED91FC91019088
:10031000F081E02DC6011995892B79F7C501DF9190
:10032000CF911F910F91FF90EF90DF90CF90BF90F2
:10033000AF900895FC01538D448D252F30E0842F1C
:1003400090E0821B930B541710F0CF9608950197FD
:100350000895FC01918D828D981761F0A28DAE0FEA
:10036000BF2FB11D5D968C91928D9F5F9F73928F71
:1003700090E008958FEF9FEF0895FC01918D828D9D
:10038000981731F0828DE80FF11D858D90E008956A
:100390008FEF9FEF0895FC01918D228D892F90E0C2
:1003A000805C9F4F821B91098F739927089581EF7D
:1003B00096E0F1DF21E0892B09F420E0822F0895F7
:1003C000FC01A48DA80FB92FB11DA35ABF4F2C91CA
:1003D000848D90E001968F739927848FA689B789C1
:1003E0002C93A089B1898C91837080648C93938DB8
:1003F000848D981306C00288F389E02D80818F7D5B
:1004000080830895EF92FF920F931F93CF93DF9312
:10041000EC0181E0888F9B8D8C8D98131AC0E88940
:10042000F989808185FF15C09FB7F894EE89FF890F
:100430006083E889F98980818370806480839FBFAD
:1004400081E090E0DF91CF911F910F91FF90EF90AD
:100450000895F62E0B8D10E00F5F1F4F0F731127BD
:10046000E02E8C8D8E110BC00FB607FCFACFE889F9
:10047000F989808185FFF5CFCE01A2DFF2CFEB8D28
:10048000EC0FFD2FF11DE35AFF4FF0829FB7F89458
:100490000B8FEA89FB8980818062D0CFCF93DF9375
:1004A000EC01888D8823B1F0AA89BB89E889F98994
:1004B0008C9185FD03C0808186FD0CC00FB607FCC2
:1004C000F7CF8C9185FFF2CF808185FFEDCFCE01F4
:1004D00077DFEACFDF91CF91089580E090E0892B1C
:1004E00021F065DF81110E94000080E090E0892BFF
:1004F00049F080E090E0892B29F00E9400008111F2
:100500000E94000080E090E0892B49F080E090E0BC
:10051000892B29F00E94000081110E94000080E0D8
:1005200090E0892B49F080E090E0892B29F00E942F
:10053000000081110C94000008958150823108F070
:100540005AC0E82FF0E08827E755FD4F8F4F0C94F5
:100550000314C902CD02BB02C102C502FB02D002D4
:10056000D602DA02E002E402E802EE02F202FB0244
:10057000F602FC020003809180008F778093800058
:100580000895809180008F7DF9CF80918000877FD2
:10059000F5CF84B58F7784BD089584B58F7DFBCF6B
:1005A0008091B0008F778093B00008958091B00063
:1005B0008F7DF9CF809190008F7780939000089580
:1005C000809190008F7DF9CF80919000877FF5CF4B
:1005D0008091A0008F778093A00008958091A00063
:1005E0008F7DF9CF8091A000877FF5CF809120018A
:1005F0008F77809320010895809120018F7DF9CF1E
:1006000080912001877FF5CF1F93CF93DF93282F11
:1006100030E0F901E452FE4F8491F901EA56FE4FB1
:10062000D491F901E05BFE4FC491CC23A1F0162FC9
:10063000811183DFEC2FF0E0EE0FFF1FE45EFE4F31
:10064000A591B4918FB7F894EC91111108C0D09591
:10065000DE23DC938FBFDF91CF911F910895DE2BB6
:10066000F8CFCF93DF9390E0FC01EA56FE4F249140
:10067000805B9E4FFC0184918823D1F090E0880F2D
:10068000991FFC01EE5FFE4FA591B491FC01E45E61
:10069000FE4FC591D49161110EC09FB7F8948C9113
:1006A000E22FE0958E238C932881E223E8839FBF7D
:1006B000DF91CF9108958FB7F894EC91E22BEC93F2
:1006C0008FBFF6CF863308F0865320917B00982F9A
:1006D0009870277F922B90937B0087708064809323
:1006E0007C0080917A00806480937A0080917A0007
:1006F00086FDFCCF809178009091790008953FB7F6
:10070000F8948091E1069091E206A091E306B09101
:10071000E40626B5A89B05C02F3F19F00196A11D40
:10072000B11D3FBFBA2FA92F982F8827BC01CD013B
:10073000620F711D811D911D42E0660F771F881F9A
:10074000991F4A95D1F708958F929F92AF92BF92C9
:10075000CF92DF92EF92FF924B015C01D0DF6B01F1
:100760007C01CDDF6C197D098E099F09683E7340BD
:1007700081059105B0F321E0821A9108A108B10822
:1007800088EEC80E83E0D81EE11CF11C8114910490
:10079000A104B10431F7FF90EF90DF90CF90BF90AC
:1007A000AF909F908F9008952FB7F8946091DD06D9
:1007B0007091DE068091DF069091E0062FBF0895CC
:1007C0008F929F92AF92BF92CF92DF92EF92FF9261
:1007D0006B017C01E9DF4B015C01C80CD91CEA1CF0
:1007E000FB1CE2DF681579058A059B0528F0C61613
:1007F000D706E806F906A8F7FF90EF90DF90CF90B4
:10080000BF90AF909F908F9008958F929F92AF92DC
:10081000BF92CF92DF92EF92FF921F93CF93DF931D
:10082000FC014A01AA24BB24C82DC32ED42EE52ED8
:10083000FF241C2DD22F8085882361F0889E4001E3
:100840001124C92D8C9D600111241D2D829FD00182
:100850001124DB2FA685E184F2849385A91322C09D
:10086000CB01880F991F680F791F6E0D7F1DA3851F
:10087000A60FB72FB11DCC93A485A60FB72FB11D1E
:100880001C938585680F711DFB01D083DF91CF918B
:100890001F91FF90EF90DF90CF90BF90AF909F900F
:1008A0008F900895660F771F660F771F6E0D7F1D5F
:1008B000252F332744275527882349F090E0829F2E
:1008C0007001839FF00C929FF00C11242F2DA60F26
:1008D000B72FB11D2C93CBCFFF920F931F93CF93C4
:1008E000DF93EC01FF24F394F60E28852F1581F198
:1008F00009851A85215041F16F3FE1F430E050E065
:1009000040E06FEF7FEF80E090E00E94E713B901D5
:10091000F8014C815D81CF01801B910B84179507F5
:10092000B0F44081469FC001479F900D11249083F1
:100930003196EFCF8F2D90E0982F88270197622F67
:1009400070E00E94C013E4CF70E060E0E1CFF88671
:10095000DF91CF911F910F91FF900895CF92DF9279
:10096000EF92FF920F931F93CF93DF9300D000D0AD
:1009700000D0CDB7DEB78C01DC0119968D919C912A
:10098000892B09F471C0BBDEF801C784D088E188E7
:10099000F2886C157D058E059F0520F46787708BA6
:1009A000818B928BF801C784D088E188F2886C191A
:1009B0007D098E099F096C3271408105910518F3FC
:1009C000F894D80114968D919C9115979A838983F8
:1009D0001996ED91FC917F01BFEFEB1AFB0A808124
:1009E0008987F80190810388F489E02DD801559614
:1009F0008C91992309F447C09081982B9887908116
:100A0000809589238F838F818C8388E08B835885A1
:100A10006F8149853B812C8189819A81D7015083DF
:100A200047FD252F3A952083262F39F0441F00C01B
:100A300000006083000000C0F2CF38E04D91608379
:100A40000000019761F7D8015496FC93EE935397F9
:100A500049873B832C839A838983789450DEF801FD
:100A60006787708B818B928B29960FB6F894DEBFC7
:100A70000FBECDBFDF91CF911F910F91FF90EF90EF
:100A8000DF90CF9008959081982B988790818095E2
:100A900089238F838F818E8388E08D8358856F8132
:100AA00049853D812E8189819A81D701508347FDF7
:100AB000252F00C000C0208300C000C000C000C0BF
:100AC00000C060830000262F3A9541F0441F0000CB
:100AD00000C000C000C000C000C0E8CF38E04D91A9
:100AE00000C0608300C0019709F7D8015496FC93B9
:100AF000EE93539749873D832E83ADCF4F925F92FC
:100B00006F927F928F929F92AF92BF92CF92DF921D
:100B1000EF92FF920F931F93CF93DF93EC01D62EAA
:100B2000C42E2801390110E000E0842E912C081514
:100B300019050CF046C08D8D9E8D6D2D600F70E0F7
:100B4000FC01228133816217730718F4A30192011B
:100B50005CDE6A8D8D8D9E8DBFDE8D8D9E8DFEDE61
:100B6000F3E0FC1558F58C8D882341F178018FEF67
:100B7000E81AF80A5801E4E0AE0EB11C0D5F1F4FF1
:100B8000EA14FB04D9F08D8D9E8D6D2D6E0D70E0F5
:100B9000FC01228133816217730728F42E893F8973
:100BA000488D598D32DE6A8D8D8D9E8D95DE8D8DB1
:100BB0009E8DD4DEFFEFEF1AFF0AE2CF0F5F1F4FCB
:100BC000B6CFDF91CF911F910F91FF90EF90DF9003
:100BD000CF90BF90AF909F908F907F906F905F90DD
:100BE0004F900895DF92EF92FF920F931F93CF9350
:100BF000DF93C9E4DBE18FE0E82E8BE1F82ED12C06
:100C000089819C85891304C09091801B992379F177
:100C1000882371F00091621B1091631B2091641B6B
:100C20003091651B48E1F701638580E69BE166DF53
:100C3000898181111CC0F701638574850091661B51
:100C40001091671B2091681B3091691BDD2009F111
:100C500088818823F1F0818592850C968617970705
:100C6000C1F46CE0680F4CE080E69BE147DFD39471
:100C70002196F2E0EF0EF11C8BE0D812C1CF10925A
:100C8000801BDF91CF911F910F91FF90EF90DF902C
:100C9000089548E1E9CF0F931F93FC01028913895E
:100CA000248935892BDF1F910F9108958F929F9290
:100CB000AF92BF92CF92DF92EF92FF920F931F936A
:100CC000CF93DF934C0189E7E82E83E1F82ED12CF6
:100CD000C12C5401AC0CBD1CD0E0C0E0F5018191E9
:100CE00091915F01019781F4009184131091851314
:100CF000209186133091871341E0F701EC0FFD1F1F
:100D000064A18EE793E1FADEF5013297808191814B
:100D1000892B01F580917D13811108C041E0F70115
:100D2000EC0FFD1F64A18EE793E1B5DF80917D1389
:100D3000813081F4009194131091951320919613B2
:100D40003091971341E0F701EC0FFD1F64A18EE78E
:100D500093E1D4DE2296C031D10509F0BFCFF0E196
:100D6000EF0EF11C80E1C80ED11CE0E8CE16D104D4
:100D700009F0AFCFDF91CF911F910F91FF90EF90CE
:100D8000DF90CF90BF90AF909F908F900895809309
:100D90007C13863079F170F4823019F128F48823BD
:100DA000D1F08130D9F00895843009F1E8F08DE96F
:100DB00096E113C0893039F128F48730F1F088309A
:100DC000F9F00895833611F1843619F18A3021F54E
:100DD0008DE194E102C08DE199E168CF8DE998E160
:100DE000FCCF8DE198E1F9CF8DE997E1F6CF8DE168
:100DF00097E1F3CF8DE196E1F0CF8DE995E1EDCF6D
:100E00008DE195E1EACF8DE994E1E7CF8DE999E1B4
:100E1000E4CF8DE19AE1E1CF08950F931F93CF9333
:100E20008C01C62F669566956695FC018581ECDB85
:100E3000C2FB662760F9F8018681E6DBC1FB662705
:100E400060F9F8018781E0DB6C2F6170F801808523
:100E5000CF911F910F91D8CBFC0101900020E9F7B1
:100E60003197AF01481B590BBC0181EF96E035CAA1
:100E70008F929F92AF92BF920F931F93CF93DF9366
:100E8000CDB7DEB7A1970FB6F894DEBF0FBECDBFCA
:100E900019A2423008F44AE08E010F5D1F4F842EE4
:100EA000912CB12CA12CA50194010E942212E62FB5
:100EB000B901CA01EA30ECF4E05DD801EE938D018E
:100EC000232B242B252B79F790E080E0109711F04D
:100ED000CD01C2DFA1960FB6F894DEBF0FBECDBF25
:100EE000DF91CF911F910F91BF90AF909F908F9006
:100EF0000895E95CE2CF0F931F93CF93DF93C4E68D
:100F0000D0E0E0916B0B2E2F30E060916C0B70E025
:100F1000CE010E94D413261737078CF5220F331FFA
:100F2000D901A357B44F8D919C910197D1F441E021
:100F30006E2F8DE69BE0AFDE00916F0B1091700B72
:100F40002091710B3091720B60916B0B6F5F45E0DC
:100F50008DE69BE0D3DD80916B0B8F5F80936B0BF5
:100F6000D0CF0091830B1091840B2091850B309191
:100F7000860B41E06E2F8DE69BE0C0DDDDCF81E08A
:100F800080936C0B6E2F70E090E080E04AE070DFA1
:100F900089E996E061DF80916B0B843629F4109229
:100FA0006B0B82E080936C0BDF91CF911F910F91BF
:100FB0000895CF93DF9350DFEC0189E996E04CDF91
:100FC0008C0F9D1FDF91CF910895CF92DF92EF920A
:100FD000FF92CF93DF93C82FE7DB6B017C018CE995
:100FE00096E03ADF6C2F70E090E080E04AE040DF6E
:100FF00083EA96E031DF4AE0C701B60139DF85EACE
:1010000096E02ADFCEE8D7E08E819F81A885B9855A
:10101000A7019601281B390B4A0B5B0BCA01B901CA
:101020004AE026DF85EA96E017DF6E817F818885BA
:101030009985CA84DB84EC84FD846C197D098E0952
:101040009F094AE0DF91CF91FF90EF90DF90CF9022
:101050000FCFEF92FF920F931F93CF93DF9300D0A8
:101060001F92CDB7DEB781EF96E087D9843689F538
:1010700081EF96E06ED981EF96E06BD98E010F5F1C
:101080001F4F78018A3339F0F80181938F0181EF86
:1010900096E05FD9F7CFC7010E940C11182F81EF9E
:1010A00096E057D98053990B8230910518F4682F38
:1010B000812FAADA81EF96E04CD98A3011F08D3079
:1010C000C9F781EF96E059D98A3019F481EF96E09B
:1010D00040D90F900F900F900F90DF91CF911F91FB
:1010E0000F91FF90EF9008952F923F924F925F9251
:1010F0006F927F928F929F92AF92BF92CF92DF9228
:10110000EF92FF920F931F93CF93DF938C01EC012B
:10111000EB96312C84EF482E55245394612C712C7E
:1011200092E3892E912CA12CB12C2224239440925D
:101130009C0750929D0760929E0770929F071092A5
:10114000A0071092A1071092A2071092A307809106
:10115000940790919507A0919607B0919707809377
:10116000980790939907A0939A07B0939B071CDB6D
:1011700060939407709395078093960790939707D1
:1011800068DF65E070E080E090E01ADB6AE070E024
:1011900080E090E015DB25E62093A5078091A50768
:1011A000833609F4A2C0853609F053C08091A007A8
:1011B0009091A107A091A207B091A3070196A11D4C
:1011C000B11D8093A0079093A107A093A207B093AD
:1011D000A30740919C0750919D0760919E077091D5
:1011E0009F07452B462B472B21F4892B8A2B8B2BD2
:1011F00081F5DADAC0909007D0909107E0909207DD
:10120000F0909307DC01CB018C199D09AE09BF0951
:1012100082339105A105B10548F4A5019401281B6D
:10122000390B4A0B5B0BCA01B901CADABDDA60930C
:10123000900770939107809392079093930782E0B1
:10124000C4DE87EA96E0B5DE64EF71E080E090E00E
:10125000B7DA6AE070E080E090E0B2DA8091A4074B
:10126000882309F43DC081EF96E095D881110AC02A
:1012700085E68093A50792CF2137310589F126377E
:101280003105B9F381EF96E086D8882389F381EFA1
:1012900096E05FD89C0133272836310509F164F7C1
:1012A00028353105F9F02336310561F77DDA609391
:1012B00090077093910780939207909393078EEA1B
:1012C00096E0CADD4AE062E070E080E090E0D0DDC8
:1012D00085EB96E06EDE62E370E080E090E070DA2D
:1012E00083E6C7CF1092A407FBCFB3DE5DDA60932D
:1012F000940770939507809396079093970788813A
:101300008B87632DC80189DD61E070E080E090E0AB
:101310001BDAF8018381D6D96C01990FEE08FF081A
:101320004AE0C701B601F7FE0CC06DE281EF96E01E
:1013300069D866277727CB016C197D098E099F092B
:101340004AE096DD89E996E087DDF8018381BAD924
:1013500080359105CCF4288233942196FBE03F122E
:10136000E6CEDF91CF911F910F91FF90EF90DF902C
:10137000CF90BF90AF909F908F907F906F905F9035
:101380004F903F902F9008951882E6CFAF92BF9272
:10139000DF92EF92FF920F931F93CF93DF938C0115
:1013A000862F5A01F8016083218361E05AD9F80140
:1013B000818181117BC086859785A089B189828BC7
:1013C000938BA48BB58B86E190E00E940B14EC010B
:1013D000F801D080198218861F86188A198A1A8AFD
:1013E00081E08E878B871C8692E09D8788837501BC
:1013F000EE0CFF1CEA0CFB1CFD82EC82C7010E9474
:101400000B149A878987009709F458C0A70170E0E8
:1014100060E00E943015BB82AA82ED2CF12CFF8285
:10142000EE828981882331F061E08D2D1AD960E048
:101430008D2DEAD8F701E05BFE4FE491F0E0EE0F6E
:10144000FF1FE45EFE4F859194919C8B8B8BF7017F
:10145000EA56FE4FE491ED8BF801D68FC58F8A8155
:101460009B81892B41F020E03FEF40E050E070E0AD
:1014700060E0CE01CAD9F801C58DD68D8E819F81DD
:1014800097FD05C061E0EDD860E08E81BDD881E0B8
:101490008983F801858D968DDF91CF911F910F91F2
:1014A000FF90EF90DF90BF90AF9058CA813009F065
:1014B0008ACF82859385A485B58581CF1D821C82C4
:1014C0001B821A82AACF1F920F920FB60F9211247D
:1014D0000BB60F922F933F934F935F936F937F932E
:1014E0008F939F93AF93BF93EF93FF9381EF96E01A
:1014F0000E94E001FF91EF91BF91AF919F918F9179
:101500007F916F915F914F913F912F910F900BBE03
:101510000F900FBE0F901F9018951F920F920FB64D
:101520000F9211240BB60F922F938F939F93EF93EB
:10153000FF93E0910107F09102078081E091070796
:10154000F091080782FD1DC0908180910A078F5F8E
:101550008F7320910B07821741F0E0910A07F0E0AA
:10156000EF50F94F958F80930A07FF91EF919F916C
:101570008F912F910F900BBE0F900FBE0F901F9069
:1015800018958081F2CF1F920F920FB60F921124FF
:101590002F933F938F939F93AF93BF938091DD06DB
:1015A0009091DE06A091DF06B091E0063091DC0656
:1015B00023E0230F2D3758F50196A11DB11D20936F
:1015C000DC068093DD069093DE06A093DF06B093E1
:1015D000E0068091E1069091E206A091E306B091C9
:1015E000E4060196A11DB11D8093E1069093E206E9
:1015F000A093E306B093E406BF91AF919F918F91C2
:101600003F912F910F900FBE0F901F90189526E8D5
:10161000230F0296A11DB11DD2CFFC0180E09FEFE8
:10162000A0E0B0E082839383A483B58380E090E060
:10163000AFEFB0E086839783A087B18780E098E71B
:10164000AFEFB0E082879387A487B5878FEF94EBE5
:10165000A0E0B0E086879787A08BB18B128A138AAF
:10166000148A158A168A178A108E118E82E390E0EA
:10167000938F828F148E0895CF93DF93EC0118829D
:101680001C820596CADF80E8E7E0F2E0DE0194966E
:1016900001900D928A95E1F7DE01AC55BF4F80E8CD
:1016A000E7E8F2E001900D928A95E1F7DE01AC5D8A
:1016B000BE4F80E8E7E0F3E001900D928A95E1F7F4
:1016C000DE01AC55BE4F80E8E7E8F3E001900D92F3
:1016D0008A95E1F7FE01EC5DFD4F20E8DF01322F36
:1016E0001D923A95E9F7749681E090E091838083AA
:1016F0003296918380833296918380833296918350
:1017000080833296918380837096918380833E9606
:10171000918380833E9691838083709691838083AA
:10172000709691838083709691838083DE01AC559F
:10173000BD4F30E8E7E0F4E001900D923A95E1F713
:10174000DE01AC5DBC4F30E8E7E8F4E001900D92BB
:101750003A95E1F7FE01EC55FC4FDF01322F1D9267
:101760003A95E9F77496918380837096918380838C
:101770007096918380837096918380833496918351
:1017800080833C96918380833296918380833296C6
:101790009183808332969183808332969183808374
:1017A0003C96918380837096918380833896DF0185
:1017B000322F1D923A95E9F776969183808332967F
:1017C000918380833296918380833A96918380833C
:1017D0003896918380837096918380833C96918321
:1017E000808332969183808372969183808338962A
:1017F000918380833896918380833A969183808306
:101800003296918380833296918380833696DF016E
:10181000322F1D923A95E9F776969183808332961E
:10182000918380833296918380833A9691838083DB
:101830003896918380833E96918380833E969183F0
:1018400080833E96918380833E96918380837096B9
:1018500091838083329691838083329691838083B3
:101860003296918380833296918380833496DF0110
:101870001D922A95E9F77896918380833C9691830F
:101880008083329691838083329691838083709691
:1018900091838083709691838083709691838083F7
:1018A0007096918380833C96918380833296918356
:1018B000808332969183808332969183808332969F
:1018C00091838083DE01AC55BA4F80E8E7E0F5E014
:1018D00001900D928A95E1F7DE01AC5DB94F80E889
:1018E000E7E8F5E001900D928A95E1F7DE01AC554D
:1018F000B94F80E8E7E0F6E001900D928A95E1F7B4
:10190000DF91CF910895CF93DF93EC018BE0FE013F
:10191000FB96DF01982F1D929A95E9F73B96DF0120
:101920001D928A95E9F781E08083CE018F5A9F4FFF
:1019300074DECF58DF4F1882DF91CF910895EF9278
:10194000FF920F931F93CF93DF93E1EFF6E01382A3
:10195000128288EE93E0A0E0B0E084839583A683B2
:10196000B7838BE896E09183808385EC90E0958740
:10197000848784EC90E09787868780EC90E0918B59
:10198000808B81EC90E0938B828B82EC90E0958B46
:10199000848B86EC90E0978B868B118E128E138E43
:1019A000148EEEE8F7E016821782108611861286F2
:1019B00013861486158616861786108A118A128A4F
:1019C000138A148A158A8FE09BE19DDF8DE99AE1E5
:1019D0009ADF89E793E150DE85E59CE04DDE09E67C
:1019E0001BE0D80112961C921297C2E01396CC937A
:1019F0008DE69BE012DEF80113A2D6ECEFE8FBE0E7
:101A0000DF012D2F1D922A95E9F7EE24E394F12CA6
:101A1000D8019596FC92EE9294970DE71AE0F801A2
:101A20001282C38381E89AE0F8DDD80193961C9274
:101A3000E3EAFAE0DF011D92DA95E9F7F801F5A291
:101A4000E4A200E018E0D80112961C9212971396B7
:101A5000CC9384E098E0E1DDF80113A214A2E5E262
:101A6000F8E088E592E0DF019C011D9221503040B2
:101A7000E1F7D8019696FC92EE929597EAEEF7E0A0
:101A800081E08083118213821282158214822FEFEB
:101A90003FEF37832683108612861186838714864C
:101AA000C58786871786108A118A128AE4EDF7E0C7
:101AB00080831182138212821582148237832683D7
:101AC00010861286118683871486C58786871786B7
:101AD000108A118A128ADF91CF911F910F91FF9086
:101AE000EF900895789484B5826084BD84B5816058
:101AF00084BD85B5826085BD85B5816085BD8091D9
:101B00006E00816080936E00109281008091810050
:101B10008260809381008091810081608093810048
:101B2000809180008160809380008091B10084600A
:101B30008093B1008091B00081608093B00080916B
:101B400091008260809391008091910081608093E8
:101B50009100809190008160809390008091A1001D
:101B600082608093A1008091A10081608093A10098
:101B70008091A00081608093A0008091210182600B
:101B800080932101809121018160809321018091C6
:101B9000200181608093200180917A00846080938D
:101BA0007A0080917A00826080937A0080917A0036
:101BB000816080937A0080917A00806880937A00B7
:101BC0001092C1001092D0071092D1071092D20744
:101BD0001092D307109290071092910710929207DB
:101BE0001092930768EB7BE080E090E00E94E003B6
:101BF00068EE73E080E090E00E94A4030E9445013B
:101C00000E94D4036093900770939107809392078A
:101C1000909393078CEB96E01FD96AE070E080E028
:101C200090E00E94E00381E08093A4070E94D40327
:101C30006093900770939107809392079093930716
:101C40008DEC96E009D90E94450183E390E09093E2
:101C5000E7068093E60660E00E94310382E080930D
:101C60007F1B10920F1B86E390E09093131B8093D1
:101C7000121B83E090E09093111B8093101B8FE266
:101C80008093141B81E38093151B83E38093161BC1
:101C900085E38093171B60E086E30E94310361E0D7
:101CA0008091141B0E94310361E08091151B0E94FA
:101CB000310361E08091161B0E94310361E0809145
:101CC000171B0E943103DAE4CD2EDBE1DD2E1AE191
:101CD000E12E1BE1F12E10E000E0D0E0C0E06C2F1F
:101CE0008FE09BE19AD8D6011D926D01F701D18F4B
:101CF000C08FD7010D931D937D01085E1F4F219664
:101D0000CB30D10561F720910F1B48E051E0609185
:101D1000101B80E69BE13ADB8AE080936A0B10920D
:101D2000690B20E044E650E06AE08DE69BE02EDBA4
:101D300044E660916B0B8DE69BE00E944B0682E2CD
:101D4000809301081092000820E04CE251E062E22A
:101D500084E098E01BDB4CE26091020884E098E0AC
:101D60000E944B0610927B1388E080937A1320E048
:101D700040E450E068E08EE793E108DB80917B135C
:101D8000811102C083E603D880917B13813019F45E
:101D900084E60E94C706E4EF4E2E55245394612C2E
:101DA000712CAA24A394B12CA5E58A2EACE09A2E1E
:101DB000B2E32B2EC5E03C2E0E94D403672B682B88
:101DC000692B09F483C00E94D4030091ED061091A1
:101DD000EE062091EF063091F0066017710782073A
:101DE000930708F4D9C10091ED061091EE062091F9
:101DF000EF063091F0066B017C01C01AD10AE20AAD
:101E0000F30A970186010A3F11052105310508F4FF
:101E100065C06093ED067093EE068093EF06909395
:101E2000F00640929C0750929D0760929E07709228
:101E30009F071092A0071092A1071092A20710927C
:101E4000A3078091940790919507A0919607B09170
:101E500097078093980790939907A0939A07B09358
:101E60009B070E94D4036093940770939507809317
:101E7000960790939707EDD80E94D403609390073C
:101E800070939107809392079093930781E09DD878
:101E900084ED96E00E942C070E94D4034AE00E9441
:101EA000380787EA96E085D865E070E080E090E04A
:101EB0000E94E003CED80E94D403609394077093ED
:101EC0009507809396079093970708C00E94D403C4
:101ED000623071058105910508F075CF86ED96E0B9
:101EE00068D8D091E906D09300022091E60630919F
:101EF000E7063327F901E452FE4F8491F901EA56CF
:101F0000FE4FC491F901E05BFE4F1491112379F06B
:101F100081110E949D02E12FF0E0EE0FFF1FEA5CAD
:101F2000FE4FA591B491EC91CE2311E009F410E09D
:101F300011701093E5061093E906D11709F465C0F6
:101F4000112309F432C13092E8060091E806C02F4F
:101F5000D0E010937D13D0939913C09398131093EE
:101F60009A13602F80919B1390919C130E946C0494
:101F700080919B1390919C130E94AE0480917C13DE
:101F80000E94C70681E08093801BD0937B1BC09387
:101F90007A1B10937C1B602F80917D1B90917E1B80
:101FA0000E946C0480917D1B90917E1B0E94AE0468
:101FB0000E94F205D093880BC093870B1093890B76
:101FC000602F80918A0B90918B0B0E946C04809102
:101FD0008A0B90918B0B0E94AE04112309F4EBC085
:101FE000E9E6FBE090E080E09C0123703327232B9F
:101FF00009F0DEC0B5A2A4A20196329684369105FE
:1020000099F70E947B070E947B078FE09BE16CD8C9
:102010008DE99AE169D8C091EB06C093EC068091F6
:102020004A1B9091D81A20914B1B21118F5F209150
:10203000D91A21119F5F9093EA068093EB066AE01C
:1020400070E080E090E00E94A403D091EB06DC17E2
:1020500019F08D2F0E94C7066AE070E080E090E0E2
:102060000E94A403DC1708F08CC00E947B070E942A
:10207000F2050E947B0780912408882309F481C01F
:1020800064E6C62ED12CF12CE12CD0E0C0E08FEF1D
:10209000E81AF80A0091210810912208BE016E0D7D
:1020A0007F1D072E000C880B990BDDD0E6D2D801DE
:1020B00012962D913C91C217D30708F045C020E03D
:1020C00030E04EEF52E40AD120E030E040E053E44B
:1020D000DCD120E030E04FE753E43BD220E030E0B9
:1020E00048EC52E4FBD09DD2F8018085882321F092
:1020F000689FB0011124672FD8011E96EC911E979E
:1021000019968D919C911A971B962C91E2135BC0A6
:102110009E01220F331F2C0F3D1F820F931FD801EA
:102120001B96EC911B97E80FF92FF11D60831C960D
:10213000EC911C97E80FF92FF11D60831D962C91EF
:10214000820F911DFC0160832196CC32F1E0DF0704
:1021500009F0A0CF80912108909122080E94AE043E
:1021600064E670E080E090E00E94A40388E5E81651
:1021700082E0F80609F089CFA1E0CA1AD10809F077
:1021800082CF0E94F2056AE070E080E090E00E9459
:10219000A4030E946D0210CE6093ED067093EE06CC
:1021A0008093EF069093F0061ECE2092E806CDCEE7
:1021B00015A214A221CFEDE8FBE0A192B1928E16F8
:1021C0009F06D9F71ECF9E01220F331F220F331F08
:1021D000820F931FE80FF92FF11D1082A0CF80917D
:1021E000DD079091DE07B3D38091DA079091DB078A
:1021F00097FD03C060E00E9431038091F307909146
:10220000F407A5D38091F0079091F10797FD03C0E3
:1022100060E00C9431030895FC0188279927E89425
:1022200021912032E9F3293010F02E30C8F32B32FF
:1022300039F02D3231F4689403C00BD0820F911D18
:10224000219120532A30C8F31EF4909581959F4F19
:1022500008957AE0979F902D879F802D910D1124EE
:102260000895E89409C097FB3EF490958095709589
:1022700061957F4F8F4F9F4F9923A9F0F92F96E9D2
:10228000BB279395F695879577956795B795F11147
:10229000F8CFFAF4BB0F11F460FF1BC06F5F7F4FE4
:1022A0008F4F9F4F16C0882311F096E911C07723F6
:1022B00021F09EE8872F762F05C0662371F096E8FF
:1022C000862F70E060E02AF09A95660F771F881FCE
:1022D000DAF7880F9695879597F908950BD078C00F
:1022E00069D028F06ED018F0952309F05AC05FC06D
:1022F0001124A2C07ED0A0F3959FD1F3950F50E09A
:10230000551F629FF001729FBB27F00DB11D639FA7
:10231000AA27F00DB11DAA1F649F6627B00DA11D4D
:10232000661F829F2227B00DA11D621F739FB00DF3
:10233000A11D621F839FA00D611D221F749F332763
:10234000A00D611D231F849F600D211D822F762FFC
:102350006A2F11249F5750408AF0E1F088234AF0F9
:10236000EE0FFF1FBB1F661F771F881F9150504045
:10237000A9F79E3F510570F014C05EC05F3FECF3BB
:10238000983EDCF3869577956795B795F795E79531
:102390009F5FC1F7FE2B880F911D9695879597F942
:1023A000089597F99F6780E870E060E008959FEFD7
:1023B00080EC089500240A941616170618060906DC
:1023C000089500240A9412161306140605060895AB
:1023D000092E0394000C11F4882352F0BB0F40F433
:1023E000BF2B11F460FF04C06F5F7F4F8F4F9F4F73
:1023F000089557FD9058440F551F59F05F3F71F0F5
:102400004795880F97FB991F61F09F3F79F087955B
:102410000895121613061406551FF2CF4695F1DFE4
:1024200008C0161617061806991FF1CF8695710574
:10243000610508940895E894BB2766277727CB01A8
:1024400097F90895A1E21A2EAA1BBB1BFD010DC02E
:10245000AA1FBB1FEE1FFF1FA217B307E407F50754
:1024600020F0A21BB30BE40BF50B661F771F881F30
:10247000991F1A9469F760957095809590959B01C6
:10248000AC01BD01CF0108955058BB27AA270ED03B
:102490009FCF90DF30F095DF20F031F49F3F11F4B3
:1024A0001EF485CF0EF4E095E7FB7BCFE92FA1DF8B
:1024B00080F3BA17620773078407950718F071F461
:1024C0009EF5B9CF0EF4E0950B2EBA2FA02D0B017F
:1024D000B90190010C01CA01A0011124FF27591B69
:1024E00099F0593F50F4503E68F11A16F040A22F6F
:1024F000232F342F4427585FF3CF469537952795E0
:10250000A795F0405395C9F77EF41F16BA0B620BDE
:10251000730B840BBAF09150A1F0FF0FBB1F661F25
:10252000771F881FC2F70EC0BA0F621F731F841F68
:1025300048F4879577956795B795F7959E3F08F08E
:10254000B3CF9395880F08F09927EE0F979587954D
:1025500008950CD03DCF35DF40F02CDF30F021F472
:102560005F3F19F01ECF511167CF21CF42DF98F3A3
:102570009923C9F35523B1F3951B550BBB27AA2704
:1025800062177307840738F09F5F5F4F220F331F76
:10259000441FAA1FA9F333D00E2E3AF0E0E830D042
:1025A00091505040E695001CCAF729D0FE2F27D045
:1025B000660F771F881FBB1F261737074807AB0713
:1025C000B0E809F0BB0B802DBF01FF2793585F4F88
:1025D0002AF09E3F510568F0E4CE2ECF5F3FECF32A
:1025E000983EDCF3869577956795B795F7959F5F4D
:1025F000C9F7880F911D9695879597F90895E1E0A1
:10260000660F771F881FBB1F621773078407BA07FF
:1026100020F0621B730B840BBA0BEE1F88F7E0955A
:102620000895EFDE88F09F5790F0B92F9927B751A2
:10263000A0F0D1F0660F771F881F991F1AF0BA9586
:10264000C9F712C0B13081F0F6DEB1E00895F3CEE3
:10265000672F782F8827B85F39F0B93FCCF386957C
:1026600077956795B395D9F73EF4909580957095D9
:1026700061957F4F8F4F9F4F08959F9305D00F9087
:1026800007FCEE5F28C093CEBCDEE8F3E894E0E000
:10269000BB279F57F0F02AED3FE049EC06C0EE0F54
:1026A000BB0F661F771F881F28F0B23A62077307B7
:1026B000840728F0B25A620B730B840BE3959A954A
:1026C00072F7803830F49A95BB0F661F771F881F0A
:1026D000D2F7904813C0EF93E0FF06C0A2EA2AEDBC
:1026E0003FE049EC5FEBE2DE73DE0F90039401FC08
:1026F0009058E4EEF0E00EC09F3F31F0915020F48E
:10270000879577956795B795880F911D96958795CD
:1027100097F908959F938F937F936F93FF93EF9310
:102720009B01AC01DBDDEF91FF9105D02F913F9133
:102730004F915F91D3CDDF93CF931F930F93FF9270
:10274000EF92DF927B018C01689405C0DA2EEF01D5
:10275000D1DDFE01E894A5912591359145915591E2
:10276000AEF3EF01A3DEFE019701A801DA9479F739
:10277000DF90EF90FF900F911F91CF91DF9108951F
:10278000AA1BBB1B51E107C0AA1FBB1FA617B70797
:1027900010F0A61BB70B881F991F5A95A9F78095B3
:1027A0009095BC01CD01089597FB072E16F4009477
:1027B00006D077FD08D0E4DF07FC05D03EF4909505
:1027C00081959F4F0895709561957F4F0895052ECF
:1027D00097FB16F400940FD057FD05D033DE07FCAD
:1027E00002D046F408C050954095309521953F4F52
:1027F0004F4F5F4F089590958095709561957F4FED
:102800008F4F9F4F0895EE0FFF1F881F8BBF0790BC
:10281000F691E02D19940F931F93CF93DF9382309D
:10282000910510F482E090E0E091831BF091841B0D
:1028300030E020E0B0E0A0E0309799F421153105B8
:1028400009F44AC0281B390B24303105D8F58A8198
:102850009B816115710589F1FB0193838283FE01E0
:1028600011C0408151810281138148175907E0F05E
:102870004817590799F4109761F012960C93129724
:1028800013961C933296CF01DF91CF911F910F9138
:1028900008950093831B1093841BF4CF21153105F9
:1028A00051F04217530738F0A901DB019A01BD012D
:1028B000DF01F801C1CFEF01F9CF9093841B809322
:1028C000831BCDCFFE01E20FF31F81939193225022
:1028D000310939832883D7CF2091811B3091821B06
:1028E000232B41F420910302309104023093821B88
:1028F0002093811B209101023091020221153105A4
:1029000041F42DB73EB74091050250910602241BB9
:10291000350BE091811BF091821BE217F307A0F4C5
:102920002E1B3F0B2817390778F0AC014E5F5F4F25
:102930002417350748F04E0F5F1F5093821B4093BA
:10294000811B819391939FCFF0E0E0E09CCFCF93E8
:10295000DF930097E9F0FC01329713821282A09175
:10296000831BB091841BED0130E020E01097A1F4AF
:1029700020813181820F931F2091811B3091821B16
:102980002817390709F061C0F093821BE093811B7F
:10299000DF91CF910895EA01CE17DF07E8F54A816C
:1029A0005B819E0141155105B1F7E901FB83EA8383
:1029B00049915991C40FD51FEC17FD0761F480812F
:1029C00091810296840F951FE90199838883828102
:1029D00093819B838A83F0E0E0E012968D919C9135
:1029E00013970097B9F52D913C911197CD0102965F
:1029F000820F931F2091811B3091821B281739076A
:102A000039F6309751F51092841B1092831BB093C6
:102A1000821BA093811BBCCFD383C2834081518191
:102A2000840F951FC817D90761F44E5F5F4F8881E7
:102A30009981480F591F518340838A819B819383D9
:102A400082832115310509F0B0CFF093841BE09308
:102A5000831B9ECFFD01DC01C0CF13821282D7CF32
:102A6000DC0101C06D9341505040E0F7089511E042
:102A7000C2E1D1E000E005C0802FFE01C4DE219656
:102A8000011DC331D10780E00807B1F7F894FFCFEB
:102A9000010000851B8000070006000500040003FC
:102AA00000020001000000080009000A000B000CF1
:102AB000000D000E000F0017001600150014001383
:102AC00000120011001000180019001A001B001C51
:102AD000001D001E001F00270026002500240023E3
:102AE00000220021002000280029002A002B002CB1
:102AF000002D002E002F0037003600350034003343
:102B000000320031003000380039003A003B003C10
:102B1000003D003E003F00000000000000000000FB
:102B200000000000000000000000000100000000A4
:102B30000001000100000000000100010000000190
:102B40000000000000010000000000010000000182
:102B50000000000000010000000000010000000172
:102B60000000000000010000000000010000000162
:102B70000000000000010000000000010000000152
:102B80000000000000010000000100010001000041
:102B90000001000100000000000000000000000033
:102BA0000000000000000000000000000001000123
:102BB0000001000000000000000000010000000013
:102BC0000000000100000000000000010000000003
:102BD00000000001000000000000000000010001F2
:102BE00000010001000000000000000000000000E3
:102BF00000000001000000000000000000000000D4
:102C000000000001000000000000000000010001C1
:102C100000010000000000000000000000000000B3
:102C200000000000000000000000000000010001A2
:102C30000001000000000000000000010000000092
:102C40000000000100000000000000010000000082
:102C50000000000100000000000000000001000171
:102C60000001000000000000000000010000000062
:102C70000000000100000000000000010000000052
:102C80000000000100000000000000000001000141
:102C90000001000000000000000000000000000033
:102CA0000000000000000000000000000001000122
:102CB0000001000000000000000000010000000012
:102CC0000000000000000000000000010000000003
:102CD00000000000000000000000000100010001F1
:102CE00000010000000000000000000100000000E2
:102CF00000000001000000000000000100000000D2
:102D000000000001000000000000000000010001C0
:102D100000010000000000000000000000000000B2
:102D200000000000000000000000000000010001A1
:102D30000001000100000000000000010000000090
:102D40000000000000000000000000010000000082
:102D50000000000000000000000000010001000170
:102D60000001000000000000000000000000000062
:102D70000000000100000000000000000000000052
:102D8000000000010000000000000001000100013F
:102D90000001000000000000000000000000000032
:102DA0000000000000000000000000000001000121
:102DB0000001000000000000000000010000000011
:102DC0000000000100000000000000010000000001
:102DD00000000001000000000000000100000000F1
:102DE00000000001000000000000000100000000E1
:102DF00000000001000000000000000100000000D1
:102E000000000001000000000000000000010001BF
:102E100000010000000000000000000000000000B1
:102E200000000000000000010000000000010000A0
:102E3000000000010000000100000000000100008F
:102E4000000100010001000100000000000100007D
:102E5000000100000001000100010001000100006C
:102E6000000100010001000100000000000100005D
:102E7000000100000001000100000000000100004E
:102E8000000100000001000100000000000100003E
:102E90000001000000010000000000000000000030
:102EA0000000000000000001000000010000000020
:102EB000000100010000000100000001000000010D
:102EC00000000000000100010000000100000001FE
:102ED00000000000000100010000000100000001EE
:102EE00000000000000100010000000100000001DE
:102EF00000000000000100010000000100000001CE
:102F000000000000000100010000000100000000BE
:102F1000000100010000000000000002026D019AA3
:102F2000014E02CB01A901BD010D0A00564D4450CE
:102F3000455F003A323A005F564D44504500564DC9
:102F40004450435F005F564D44504300564D44503B
:102F5000565F317C315F564D4450560A00564D4401
:0C2F600050525F007C006D61696E000043
:00000001FF
